:100000000C941A040C9461040C9461040C94610423
:100010000C9461040C9461040C9461040C946104CC
:100020000C9461040C9461040C94582A0C942A2BAF
:100030000C942B210C9461040C9461040C946104C5
:100040000C9461040C9461040C9461040C9461049C
:100050000C9461040C9478210C9461040C94610458
:100060000C9461040C9461040C9461040C9461047C
:100070000C9461040C9461040C9461040C9461046C
:100080000C9461040C9461040C9461040C9461045C
:100090000C9461040C9461040C9461040C9461044C
:1000A0000C9461040C9461040C946104440F470F98
:1000B0004F0F540F590F5E0F630F680F6D0F720FC4
:1000C000770F7C0F7E0F810F840F870F8A0F8D0FA4
:1000D0008F0F940F4716471679167916C616E41631
:1000E0003C183C182617BB17CC17CC172C183C18FB
:1000F0003C183518D118D118E318E318DA18E318AA
:10010000E318E318D118D118DF18E318E318DF1843
:10011000972BBE2BB62CBE2BB62C0A2C2D2CB62C16
:10012000842C932C35001E001F002000210022008B
:10013000230024002500260027002D002E000000AB
:100140002A002B00000014001A00080015001700F8
:100150001C0018000C00120013002F0030003100AA
:100160002900000004001600070009000A000B0027
:100170000D000E000F003300340028000000E100E5
:1001800000001D001B0006001900050011001000F2
:100190003600370038000000E5000000E0000451A0
:1001A0000000E200000000002C0000000000000041
:1001B000E600E40000004600E70035001E001F00D6
:1001C0002000210022002300240025002600270013
:1001D0002D002E0000002A002B00000014001A0041
:1001E0000900130005000D000F0018001C0033006B
:1001F0002F00300031002900000004001500160017
:1002000017000A000E00110008000C001200340054
:1002100028000000E10000001B0006000700190094
:100220001D0010000B003600370038000000E5000C
:100230000000E00004510000E200000000002C007B
:10024000000000000000E600E40000004600E700B7
:1002500035001E001F002000210022002300240082
:100260002500260027002D002E0000002A002B006C
:10027000000014001A000800150017001C001800E8
:100280000C00120013002F00300031002900000084
:1002900004001600070009000A000B000D000E0004
:1002A0000F003300340028000000E10000001D00B2
:1002B0001B00060019000500110010003600370071
:1002C00038000000E5000000E00003510000E200FB
:1002D000000000002C00000000000000E600E40028
:1002E00000004600E70001003A003B003C003D00F2
:1002F0003E003F00400041004200430044004500F2
:1003000000004C00010000000100E101E1000100DB
:10031000010001004B0001000100F6004200430013
:100320004400290000000401E0004E00010001002B
:100330005000510052004F004A004D00450000009F
:10034000E1000000AA00A9002D002E00010001001C
:10035000A8000100010001000000E5000000E0002D
:1003600001000000E200000000002C080000000076
:100370000000E600E40000004600055101003A00DC
:100380003B003C003D003E003F0040004100420079
:1003900043004400450000004C0001000000010043
:1003A000E101E100F600050151004F004B000100A2
:1003B0000100420043004400290000000401E00065
:1003C0002D002E00010052004A004D0001000100E6
:1003D000010045000000E1000000AA00A9004E0055
:1003E00001000100A8005000010001000100000010
:1003F000E5000000E00001000000E2000000000055
:100400002C08000000000000E600E40000004600A8
:100410000551010000520152025201000100010089
:1004200001000100010001000100010000000100C5
:10043000BF5C0000BD5CBE5CC05C0100010001004F
:100440000100010001000100010001000100C25C87
:100450000000C35CC55CC75CC95CCB5CCD5CCE5C9A
:10046000CF5CD05C01000100010000000100000031
:10047000C45CC65CC85CCA5CCC5CD15CD25CD35C3E
:10048000D45C010000000100000001000100000038
:100490000100000000000100000000000000010059
:1004A000010000000100010032190A00047F3F1F13
:1004B000643214643214783C1E1E140A052223256B
:1004C0002628292A2C2D2F3032333536383A3B3D19
:1004D0003E4042434547494A4C4E50515355575967
:1004E0005A5C5E6062646668696B6D6F7173757784
:1004F000797B7D7F81838587898A8C8E9092949683
:10050000989A9C9E9FA1A3A5A7A8AAACAEAFB1B391
:10051000B4B6B8B9BBBCBEBFC1C2C3C5C6C7C9CAE1
:10052000CBCCCDCED0D1D2D2D3D4D5D6D7D7D8D9A3
:10053000D9DADADBDBDBDCDCDCDCDCDDDDDDDDDC01
:10054000DCDCDCDCDBDBDBDADAD9D9D8D7D7D6D513
:10055000D4D3D2D2D1D0CECDCCCBCAC9C7C6C5C3D5
:10056000C2C1BFBEBCBBB9B8B6B4B3B1AFAEACAA22
:10057000A8A7A5A3A19F9E9C9A98969492908E8CD2
:100580008A89878583817F7D7B79777573716F6DAC
:100590006B6968666462605E5C5A59575553515086
:1005A0004E4C4A4947454342403E3D3B3A3836353A
:1005B0003332302F2D2C2A292826252322FFAA7FEB
:1005C0005540000101010101010101010202020285
:1005D00002020202020303030303030303040404ED
:1005E00004040404050505050506060606060707B6
:1005F00007070708080808090909090A0A0A0B0B6E
:100600000B0C0C0C0D0D0D0E0E0E0F0F0F1010110C
:100610001111121213131414151516161717181892
:1006200019191A1A1B1B1C1D1D1E1E1F20202122FA
:1006300022232424252626272829292A2B2C2D2D40
:100640002E2F30313232333435363738393A3B3C5D
:100650003D3E3F404142434445464748494A4C4D50
:100660004E4F50515354555658595A5B5D5E5F6119
:100670006264656668696B6C6D6F707273757778AC
:100680007A7B7D7E8082838587888A8C8E8F91930A
:100690009596989A9C9EA0A2A3A5A7A9ABADAFB131
:1006A000B3B5B7BABCBEC0C2C4C6C9CBCDCFD1D416
:1006B000D6D8DBDDDFE2E4E7E9EBEEF0F3F5F8FABC
:1006C000FDFF0403300000000A0344005A00360016
:1006D0003000000010034B0042004400460061005F
:1006E0006E00730000000403090409023B000201CC
:1006F00000A0FA0904000001030101000921110111
:1007000000012240000705810308000A09040100D6
:10071000010300000009211101000122BC000705AE
:10072000820320000A12011001000000085A4460F0
:100730002201000102030105010902A1018502094C
:1007400001A1000509190129051500250195057567
:1007500001810295017503810105010930093115F7
:1007600081257F95027508810609381581257F95B9
:100770000175088106050C0A38021581257F95014F
:1007800075088106C0C005010980A1018503190112
:100790002AB700150126B700950175108100C00524
:1007A0000C0901A101850419012AA002150126A046
:1007B00002950175108100C005010906A10185059A
:1007C000050719E029E71500250195087501810243
:1007D0000507190029EF1500250195F07501810223
:1007E0000508190129059505750191029501750303
:1007F0009101C005010906A101050719E029E715C6
:100800000025019508750181029501750881010592
:1008100007190029FF150026FF00950675088100BD
:1008200005081901290595057501910295017503C2
:100830009101C00011241FBECFEFDAE0DEBFCDBFB3
:1008400004B603FE27C080916C0390916D03A091C4
:100850006E03B0916F038730904BA740B04BD1F43B
:1008600010926C0310926D0310926E0310926F033E
:1008700014BE84B7877F84BF0FB6F894A895809183
:100880006000886180936000109260000FBEE0E01D
:10089000F8E3099511E0A0E0B1E0E4E9FCE502C06D
:1008A00005900D92AC3CB107D9F723E0ACECB1E078
:1008B00001C01D92AC36B207E1F70E9487270C9465
:1008C000482E0C940000229A2A9A08950E945507F7
:1008D0000C94630481FF02C02A9801C02A9A0C94E8
:1008E000CD0481E0089581E008950C947304089587
:1008F0000C9477041F93CF93DF9300D000D01F9206
:10090000CDB7DEB749835A836B833091400289812A
:100910009A81311114C0662359F0222349F00E94B4
:100920000A1E182F682F89819A810E94B31D03C067
:100930000E94DE1D182F69817A81812F04C00E94D8
:100940000A1E69817A810F900F900F900F900F907F
:10095000DF91CF911F910C943805FC01262F408127
:1009600051816281738184810C947A04CF93DF93E7
:10097000EC0160E00E94AD04BE01DF91CF910C94C8
:1009800078040E943C1F811102C00E94EF1F0E9448
:100990000F110C9466040C945307089581E0089598
:1009A0000C94CE04CF93C82F0E946A048C2F0E940F
:1009B000D004CF91089508950E94BF180E94DB04CF
:1009C0002FEF84E39CE0215080409040E1F700C08D
:1009D00000000C949E210F931F93CF93DF93EC01A3
:1009E00061E00E94AD048C01BE010E947504882361
:1009F000A9F1BE01C8010E947810882379F1BE01D7
:100A0000C8010E94D211882349F1BE01C8010E9489
:100A10001312882319F1BE01C8010E943E138823D6
:100A2000E9F0BE01C8010E942D0F8823B9F08A8128
:100A3000882369F001158CE5180731F00E3D1C453F
:100A400031F40E94EF1F0AC00E94DC0407C0CE01EF
:100A5000DF91CF911F910F910C94710480E0DF9191
:100A6000CF911F910F91089580E090E0089508952F
:100A70002BE4829FC0011124FC012FE0729FE00D46
:100A8000F11D1124E60FF11DEE0FFF1FEC5DFE4F6F
:100A9000859194910895880F991FFC01E855FB4FAB
:100AA000859194910895CF93DF930E9438050E9419
:100AB0006B06EC018115904508F041C0C11580E43A
:100AC000D80708F0D1C0C83ED10510F5C03ED10509
:100AD00008F0FDC0C83AD10578F4C53AD10508F050
:100AE000A2C0C130D10509F4F2C008F4EEC0C43090
:100AF000D10508F0ECC0E9C0CF3BD10508F49BC09C
:100B0000C03CD10508F4E1C0CE01805C91099EC0D3
:100B1000C11590E2D90758F4C11521E0D20708F0B9
:100B2000D6C0C03FD10508F4D0C0D065D0C0C11533
:100B300080E3D80708F08EC0CE019F7087C0C11532
:100B400095E5D90708F043C0C11524E5D20708F0A0
:100B5000A2C0C11582E5D80708F5C11591E5D907EE
:100B600008F085C0CE0174E0969587957A95E1F7F7
:100B700083709C2F937021E030E002C0220F331F5E
:100B80009A95E2F73C68382BCF70C695C69580E2FF
:100B9000C89FE0011124C22BD32B99C09E01237062
:100BA00033278C2F86958695C115D34508F064C0F0
:100BB000C1E0D0E002C0CC0FDD1F2A95E2F720E2B1
:100BC000829FC0011124C82BD92BDC6880C0C115BD
:100BD00029E5D207A0F4C11588E5D80708F060C060
:100BE000C11596E5D90708F070C08C2F0E94FF064A
:100BF0008F71C82FD0E0DC2FCC27D06268C0C11520
:100C00002AE5D20708F451C0CE01905681159042D2
:100C100008F05BC08D2F8F710E94FF06DD27D06228
:100C20008F71D82B54C0C55AD0E0C75ADE4FC88147
:100C3000D0E0D0644CC0C85AD0E0CC0FDD1FC55DF9
:100C4000DE4F0990D881C02DD46441C00E944B056D
:100C5000EC013DC0CE019927D3FF03C0EC01D86C55
:100C600036C0EC01D06C33C0DF70D06A30C0DC2FEE
:100C7000CC27C16FD06A2BC0C1E0D0E002C0CC0F3E
:100C8000DD1F2A95E2F720E2829FC0011124C82BC4
:100C9000D92BDA681CC0DC2FCC27C46FD06A17C0F0
:100CA000DC2FCC27C06FD06A12C08C2F8F700E94AF
:100CB000FF0694E0D695C7959A95E1F7CF70D0E0FE
:100CC000DC2FCC27D069C82B02C0C0E0D0E0CE0119
:100CD000DF91CF9108958238910569F1B0F48133A5
:100CE000910509F46DC048F48932910509F463C097
:100CF0008A32910509F469C008958533910509F494
:100D000055C089339105B9F00895833E910569F185
:100D100038F4803E9105B1F0823E910509F10895C5
:100D2000863E9105A9F1873E9105B9F1843E910572
:100D300009F064C023C020915D0320FD4FC021FD58
:100D40004DC0089580915D0380FD44C080915E0395
:100D500080FF44C080915D0384FD42C083EE4DC09E
:100D600080915D0382FF38C0F5CF80915D0382FDE5
:100D700033C080915E0380FD31C0ECCF80915E0373
:100D800081FF32C080915D0384FD2AC087EE35C0AB
:100D900080915D0383FF26C0F5CF80915D0383FDC5
:100DA00021C080915E0381FD1FC0ECCF80915D0367
:100DB00085FD1CC01DC080915D0385FD19C016C056
:100DC00080915D0386FD16C017C080915D0386FD8E
:100DD00013C010C089E311C082EE0FC080EE0DC0B9
:100DE00080E00BC086EE09C084EE07C089E205C032
:100DF00085E303C08AE201C081E390E00895909109
:100E00005D0392FF0DC0282F2871283019F4877FC9
:100E1000846006C0282F2471243011F48B7F8860F1
:100E200093FF0DC0282F2871283119F4877E846123
:100E300006C0282F2471243111F48B7E8861209103
:100E40005E0320FF0DC0382F3871383019F4877FCA
:100E5000816006C0382F3171313011F48E7F886087
:100E600021FF0DC0282F2871283119F4877E816158
:100E700006C0282F2171213111F48E7E886194FDE6
:100E8000877E0895E82FF0E0EE0FFF1FE95EFC4F2C
:100E9000808191810895089580EA8A95F1F70895F7
:100EA00008950C9450070C9451070C945007CF935D
:100EB000DF93ABE6B1E040E751E061E070E08D9197
:100EC000E82FE295EF70F0E021A18F70EB0102C0F6
:100ED000CC0FDD1F8A95E2F7CE019C2F90959223CF
:100EE00091A392A1892B82A34A175B0741F7ACE536
:100EF000B1E04BE651E061E070E08D91E82FE295C2
:100F0000EF70F0E021A18F70EB0102C0CC0FDD1F6C
:100F10008A95E2F7CE019C2F9095922391A392A1FE
:100F2000892B82A34A175B0741F7EDE0F3E0A7E1C5
:100F3000B3E087E193E0119211921D921D928E17FA
:100F40009F07C9F785E00E944608DF91CF910C9476
:100F5000C1042F923F924F925F926F927F928F9235
:100F60009F92AF92BF92CF92DF92EF92FF920F9338
:100F70001F93CF93DF938BE6C82E81E0D82E0DE030
:100F800013E097E1492E93E0592E312C8824839465
:100F9000912C5801D8016D907C9011971D921C9254
:100FA000F60181916F01C82FC295CF70D0E099A151
:100FB0008F70740101C0EE0C8A95EAF7892F8E2993
:100FC00089A38AA12E2C209482218AA30E944C07F7
:100FD000ECE5F1E020E030E06191A62FA295AF7042
:100FE000B0E090968C91D8014D915C9190E06F703B
:100FF00002C0959587956A95E2F780FD08C0C40107
:10100000022E02C0880F991F0A94E2F702C080E006
:1010100090E0482B592BD8014D935C932F5F3F4FA5
:101020002F303105C9F689A1282229A28AA1E82AF0
:10103000EAA20E5F1F4F81E0F50120813181261564
:10104000370509F480E0382A4016510609F0A1CF8F
:10105000232D45E067E173E08DE093E00E944708AF
:101060000E94CB04832DDF91CF911F910F91FF90B0
:10107000EF90DF90CF90BF90AF909F908F907F9038
:101080006F905F904F903F902F9008950895FF923A
:101090000F931F93CF93DF93F82E092F162FD72F7F
:1010A000C42F222349F081E08093CE010E945D216C
:1010B0009093CD018093CC018091CE018823D9F00B
:1010C0008091CC019091CD010E946921069798F002
:1010D000EF2DF02FA12FBD2F80E090E04C2F50E09E
:1010E0008417950734F4219131912D933D93019606
:1010F000F7CF1092CE01DF91CF911F910F91FF900A
:101100000895EF92FF920F931F93CF93DF93F62EE4
:10111000472FE82FF0E0711106C0EE53FA4F6491AB
:10112000762F862F72C0272F30E0EE53FA4FE491CE
:101130000E2F10E056E0659FC0011124CFEFD0E0E4
:10114000BE010E94062D5BEA5603C001579F900D19
:1011500011248F0D911D8F0D911D982F990F890FBF
:101160007E01E21AF30AE09ED001E19EB00DF09EEE
:10117000B00D1124489FA0011124452F55277E0151
:10118000E41AF50AE09EA001E19E500DF09E500D7C
:1011900011247E01E81AF108E29EC001E39E900D41
:1011A000F29E900D1124892F9927C81BD90BC09F3F
:1011B000C001C19F900DD09F900D11246230710528
:1011C00091F048F461157105E1F061307105A9F401
:1011D0008B2F752F19C06430710561F038F06630BF
:1011E000710579F00AC0892F7B2F0EC08E2F7B2FBF
:1011F000E52F0AC08E2F792F02C0852F7E2FEB2F6F
:1012000003C08B2F7E2FE92F6E2FDF91CF911F917F
:101210000F91FF90EF9008950895CF93DF93762F6D
:10122000E901682F842F0E948108798368838A836B
:10123000DF91CF91089580912103282F269530E0EA
:101240002115310519F48170826005C02B323105FA
:1012500024F08170846580932103089588E090E0F4
:101260000C94E12DCF92DF92EF92FF926B017C0103
:101270000E941B09B701A60188E090E0FF90EF9063
:10128000DF90CF900C94FF2DE1E2F3E083E08083C8
:1012900011828FEF828383831482608171818281C6
:1012A00093810C9432098091210380FF02C08695BE
:1012B000089580E0089580912503833018F48F5FAE
:1012C0008093250360912103709122038091230371
:1012D000909124030C94320980912503882319F0FE
:1012E00081508093250360912103709122038091A6
:1012F0002303909124030C94320970E00C945B1149
:10130000609107018091210380FF0AC0809106014E
:1013100023E0829FC00111248A5D9C4F0C947D09BB
:101320008091080190910901891780F7E82FF0E07A
:101330009F01220F331FE20FF31FEA5DFC4F118262
:10134000108212828F5FF0CF9091210390FF16C020
:101350009091080120910901921770F4E92FF0E0B3
:10136000DF01AA0FBB1FEA0FFB1FEA5DFC4F818361
:10137000608342839F5FF0CF0C9480090895CF93E0
:10138000DF9300D01F92CDB7DEB79091210390FF7D
:101390000AC09E012F5F3F4F0E940D094B8169815A
:1013A0008A810E94A4090F900F900F90DF91CF9136
:1013B0000895CF93DF93EC01EC81F0E0E354FB4F11
:1013C0004491E1E2F3E0628181810E94BF098C8156
:1013D0008F5F8C83DF91CF910895CF93DF93EC01E2
:1013E000E1E2F3E0438162818C810E94BF098C813C
:1013F0008F5F8C83DF91CF9108950F931F93CF93CD
:10140000DF9300D01F92CDB7DEB78C018091CF0162
:1014100081110AC09E012F5F3F4F4FEF6FEF0E9477
:101420000D098A818093CF01F8018481813051F0C8
:1014300028F0823061F44091CF010AC08091CF0141
:1014400040E007C06091CF0140E080E003C040E091
:1014500080E060E00E94A409F801848190E0019698
:1014600063E070E00E941A2D84830F900F900F901C
:10147000DF91CF911F910F910895AF92BF92CF92BC
:10148000DF92EF92FF920F931F93CF93DF9300D0E1
:101490001F92CDB7DEB7182FF62E042FE22E9091B3
:1014A000210390FF6DC0E92FE695AE2FB0E0A05963
:1014B000BE4F8C91809329029E7F923061F49E01F1
:1014C0002F5F3F4F812F0E940D094B8169818A81D7
:1014D0000E94A40943C0823019F4009124033EC045
:1014E000863019F41091220339C08930D9F389313B
:1014F000A9F5E9518E2F8170D82EE695F0E0E354DE
:10150000FA4FA590B490C12CBB2460910A01C61675
:1015100018F52C2D30E0A29EC001A39E900DB29E26
:10152000900D112470E00E94062D812FD11002C071
:10153000860F01C0861B90910801290F311DA9015A
:10154000440F551F240F351F2A5D3C4F402F6F2D30
:101550000E940D09C394D9CF0E94800910932203E1
:10156000F092230300932403EE2051F060912103B5
:101570007091220380912303909124030E943209E9
:101580000F900F900F90DF91CF911F910F91FF90CF
:10159000EF90DF90CF90BF90AF900895E1E2F3E03D
:1015A0009181282F4381628188E0890F0C943D0A44
:1015B00081E00C94CE0AE1E2F3E09181282F43818F
:1015C000628188EF890F0C943D0A81E00C94DB0A5C
:1015D000E1E2F3E0628128E0620F08F46FEF282F68
:1015E000438181810C943D0A81E00C94E80AE1E298
:1015F000F3E0628128E0621B08F460E0282F438159
:1016000081810C943D0A81E00C94F70AE1E2F3E059
:10161000438128E0420F08F44FEF282F6281818137
:101620000C943D0A81E00C94060BE1E2F3E0438167
:1016300028E0421B08F440E0282F628181810C944D
:101640003D0A81E00C94150B20E00C943D0AFF92BA
:101650000F931F93CF93DF93EC01F12C0FEF10E06A
:1016600060910A01F616F0F4809108012F2D30E008
:10167000280F311DC901880F991F280F391F2A5DB6
:101680003C4F70E0C8010E941A2D962F8C8140912A
:10169000240360912303F99E800D11240E940D09FB
:1016A000F394DECF0E9480099A818C8190FF02C062
:1016B0008F5F01C081508C83DF91CF911F910F917B
:1016C000FF900895BF92CF92DF92EF92FF920F9317
:1016D0001F93CF93DF93FC01828180FF02C00FEF45
:1016E00001C001E010E080910A01181708F040C025
:1016F00080910801C12ED12CE601C80FD11DCE0169
:10170000880F991FC80FD91FCA5DDC4F1982188234
:101710001A8234E0E32EF12CB12C8091D1018B0D93
:10172000813114F08F7005C087FF03C090910A01CA
:10173000890F082E000C990BC816D90691F48091D8
:1017400024038E9DA0018F9D500D11245595479522
:10175000559547959E0160912303809122030E9435
:101760000D09B00EF1E0EF1AF108B9F61F5FBBCF1B
:101770000E9480098091D101013031F4811102C0B1
:1017800080910A01815007C090E0019660910A01A2
:1017900070E00E941A2D8093D101DF91CF911F91AB
:1017A0000F91FF90EF90DF90CF90BF900895CF936F
:1017B0008091080190910901891770F4E82FF0E0F9
:1017C0009F01220F331FE20FF31FEA5DFC4F1182CE
:1017D000108212828F5FF0CFC0E060910A01C617BD
:1017E000C0F5EC2FF0E070E0CF010E941A2D20919F
:1017F0000801820F2091D001022E000C330B90E0E3
:10180000E217F307CCF020910501022E000C330BF8
:101810002E173F078CF09C01220F331F820F931F5E
:101820009C012A5D3C4F40912403609123038091E9
:1018300022030E940D090BC0FC01EE0FFF1F8E0F4B
:101840009F1FFC01EA5DFC4F118210821282CF5F64
:10185000C4CF0E948009209104018091D001820FA1
:101860008093D00190910501920F90930501191674
:101870005CF4082E000C990B40910A0150E0415095
:101880005109841795071CF0219520930401CF91ED
:1018900008950F931F93CF93DF938C01FC018481F4
:1018A000958101968170992795838483C0E0D5E561
:1018B00080910A01C81700F5809108012C2F30E0B3
:1018C000280F311DC901880F991F280F391F2A5D64
:1018D0003C4F4C2F4695F80184819581840F911DD2
:1018E000817040912403609123038D9F802D1124EA
:1018F0000E940D09CF5FDCCFDF91CF911F910F9137
:101900000C9480090F931F93CF93DF93EC0100E0B9
:1019100010E080910A01282F30E00217130724F508
:10192000909108019801290F311DA901440F551FFD
:10193000240F351F2A5D3C4F869590E04C81081797
:1019400019071CF4442331F002C0411103C0409137
:10195000240301C040E060912303809122030E9490
:101960000D090F5F1F4FD5CF0E9480098C8190E039
:101970000196817099278C83DF91CF911F910F91F0
:1019800008958F929F92AF92BF92CF92DF92EF9283
:10199000FF920F931F93CF93DF93FC01B28094804B
:1019A00081E0848300E015E05BE4A52E8824839425
:1019B000EE24EA94F12C7BE4C72ED12C80910A010D
:1019C000081708F08FC0C02FD0E01C9FF0011D9FAA
:1019D000F00D1124EE52FE4F911003C013821282BB
:1019E00067C02381222389F121502383348133234B
:1019F00019F09A2D921B01C0922F809124031C9FF5
:101A0000F0011D9FF00D1124EE52FE4F899FC00181
:101A10001124B6010E94062D6283211104C03323D4
:101A200011F01482A38222E02B1508F441C01C9F00
:101A3000F0011D9FF00D1124EE52FE4F8091220304
:101A4000808380912303818333C00E94BC2D823028
:101A5000914074F582E08B1530F40E94BC2DB701E3
:101A60000E941A2D02C0809122031C9FF0011D9F2D
:101A7000F00D1124EE52FE4F808322E02B1558F416
:101A80000E94BC2D209123032695622F70E00E94B6
:101A90001A2D820F02C0809123031C9FF0011D9F0D
:101AA000F00D1124EE52FE4F81831282A3828482B4
:101AB000809108019E01280F311DC901880F991FCF
:101AC000280F391F2A5D3C4F1C9FF0011D9FF00D10
:101AD0001124EE52FE4F4281618180810E940D09E6
:101AE0000F5F6CCFDF91CF911F910F91FF90EF901F
:101AF000DF90CF90BF90AF909F908F900C94800913
:101B0000E1E2F3E080818E7F808360817181828158
:101B100093810E94320910922A022FEF80E792E00F
:101B2000215080409040E1F700C000000C948009F3
:101B3000E1E2F3E080818E7F808310922A022FEF12
:101B400080E792E0215080409040E1F700C0000023
:101B50000C94800960912103669570E04BE050E0A1
:101B60008BE091E00E94CC2D892B19F481E08093C9
:101B70002A020E945D2190932302809322020895FD
:101B80009091210390FF35C09170811102C0926045
:101B900006C08B3210F0946502C0880F982B90938A
:101BA0002103662351F060912103709122038091FB
:101BB0002303909124030E943209609121036695CA
:101BC00070E04BE050E08BE091E00E94CC2D892B3F
:101BD00019F010922A0202C00E94AA0D81E080939F
:101BE00025024091240360912303809122030C94E9
:101BF000240B0895682F90912103969581E0890F19
:101C00008B3208F081E00C94C00D81E00C94FA0D49
:101C1000682F9091210396958FEF890F09F48AE23E
:101C20000C94C00D81E00C94080E61E00C94C00D82
:101C3000E1E2F3E080818160808386950C94150E4B
:101C40008091210380FD0C94800D0C94180E60E0AF
:101C50000C94C00D8091280281112EC00E943C1F5F
:101C6000811104C00E94EF1F0E9444090E942E09A6
:101C700060932103709322038093230390932403A2
:101C80006E7F61F40E9444090E942E096093210333
:101C90007093220380932303909324030E941B09D3
:101CA00010922A028091210380FF03C086950E9432
:101CB000270E81E0809328020895E1E2F3E080811D
:101CC0008160808386950C94270E10922A020895D5
:101CD0000F931F93CF93DF9380912A02882309F4F7
:101CE0009CC080912902E0912103E695E81BE093D6
:101CF0002402823049F4F0E0E754FB4FE491CE2F08
:101D0000D0E009ED19E059C0863049F4F0E0EA541A
:101D1000FB4FE491CE2FD0E00DEE19E04EC089309C
:101D200051F4E695F0E0ED54FB4FE491CE2FD0E076
:101D300007E21BE042C08F3051F4E695F0E0E05539
:101D4000FB4FE491CE2FD0E002E61BE036C0853198
:101D500049F4F0E0E355FB4FE491CE2FD0E007EDDE
:101D60001BE02BC08831D9F0833239F4EBEAF4E080
:101D7000C591D4910DEF19E020C08432A9F08532CD
:101D8000C1F48E2F63E00E94FA2CE92FF0E0E855B1
:101D9000FB4FE491CE2FD0E001EC1CE00EC0C8EE6A
:101DA000D3E009E41CE009C0C4EFD1E002E81CE084
:101DB00004C0C0EDD7E00CE019E080912502882333
:101DC00089F0109225020E945D219E012095309598
:101DD000820F931F90932302809322021092270276
:101DE0001092260280912202909123020E94692182
:101DF0008C179D0790F0E0912202F0912302CE0F04
:101E0000DF1FD0932302C093220282E292E0F80106
:101E1000DF91CF911F910F910994DF91CF911F9185
:101E20000F910895882311F0FA0101C0FB01099474
:101E3000CF93DF93C82FD62F0E9453098C1740F001
:101E40000E9453098D1720F4DF91CF910C94050E59
:101E50008C2FDF91CF910C94150E0F931F93CF937E
:101E6000FB01C281CC2309F463C08C010E948B1E4C
:101E70008272F801E25CFC45E431F10508F059C0DA
:101E8000EA5AFF4F0C94502D0E94200E06C042E1EA
:101E90005EE065E07EE00E94120FC0E04AC045E0CF
:101EA0005EE062E17EE0F7CF45EE5AE068ED7AE071
:101EB000F2CF48ED5AE065EE7AE0EDCF43E05BE02B
:101EC00064EF7AE0E8CF44EF5AE063E07BE0E3CFF1
:101ED00041E25BE062E17BE0DECF42E15BE061E2B8
:101EE0007BE0D9CF4CE659E06BE579E0D4CF4BE508
:101EF00059E06CE679E0CFCF81E017C065E082E081
:101F000010C068E086E00DC06EE089E00AC064E1C0
:101F10008FE007C067E185E104C088E106C062E2A6
:101F200089E10E94180FB9CF83E20E94150EB5CF48
:101F3000C1E08C2FCF911F910F9108950E943C1FFB
:101F4000811102C00E94EF1F0E94771F80935603E9
:101F5000282F26952695269530E02630310524F049
:101F600087708862809356038091560380FF04C077
:101F700086958695869501C080E00C94AD102091E1
:101F80005603822F869586958695482F50E04530DA
:101F9000510554F48F5F982F990F990F990F822F45
:101FA0008770892B809356038091560381608093BC
:101FB00056030E947B1F80915603869586958695D1
:101FC0000C94AD1080915603982F96959695969502
:101FD000A1F0915E990F990F990F8770892B8093CB
:101FE0005603887F91E009F490E08091560390FBBE
:101FF00080F9809356030E947B1F8091560386953B
:10200000869586950C94AD108091560380FD13C083
:10201000816080935603813019F489E080935603E0
:10202000809156030E947B1F80915603869586956A
:1020300086950C94AD1008958091560380FF08C0DA
:102040008E7F809356030E947B1F80E00C94AD101E
:1020500008958091560380FD0C941C100C9404107C
:1020600090915603892F8695869586958F5F8F71FF
:102070009770863038F4880F880F880F892B8093EB
:10208000560302C09093560380915603887F91E0D7
:1020900009F490E08091560390FB80F980935603F9
:1020A0000E947B1F809156038695869586950C9499
:1020B000AD10863008F085E0909156039770282F78
:1020C000220F220F220F922B90935603987F21E02C
:1020D00009F420E09091560320FB90F99093560369
:1020E0000C94AD100E945910809156030C947B1FE4
:1020F0009C01FB018281882349F12D3BFCE53F07D0
:10210000C9F040F42B3BECE53E0769F02C3B3C4525
:1021100061F008952F3B9CE5390791F070F0203C69
:102120003C4589F0089585E001C080E00E9472106E
:1021300080E008950E94E20FFBCF0E94BF0FF8CF0E
:102140000E942910F5CF0E943010F2CF81E008954F
:10215000269A2E9808952E980895CF92DF92EF92A6
:10216000FF92CF93C82F863050F4811109C080911F
:1021700080008F7D809380000E94AB1006C0C5E078
:10218000809180008062809380002C2F30E0AFEF40
:10219000BFEF0E94562D25E030E040E050E00E9465
:1021A0002E2DC9012C3764E1360728F469E070E070
:1021B0000E94062D29C0DA01C9018A50974DAF4F00
:1021C000BF4F6627782F892F9A2F25EF38E241E0FD
:1021D00050E00E942E2D69017A01CA01B9010E94C6
:1021E000EA2C9B01AC01C701B6010E94EA2CBB2777
:1021F000A92F982F872F009721E0A207B10511F092
:10220000BC0102C06FEF7FEF70938B0060938A0078
:10221000CF91FF90EF90DF90CF90089508950E94A6
:10222000A81082E28093800089E1809381008FEF83
:102230009FEF90938700809386000C949E0F5DB172
:10224000E42FEF7021E030E001C0220FEA95EAF7B9
:10225000352F322B3DB942954F70E42FF0E032A17B
:10226000422F4095342342A1242B4FB7F894FC0110
:10227000CB01880F991F680F791F6E0F7F1FE6171C
:10228000F70789F0819198E02EB9000000C087FF20
:102290003EB9880F000000C000C000C03EB900C0B9
:1022A0009A9591F7ECCF4FBF87EC90E00197F1F74B
:1022B00000C00000089542EC0C941F110F931F936F
:1022C000CF93DF93C62FD42F122FFC018281882356
:1022D000C9F060932D020E945D2190932C0280939F
:1022E0002B0280E28C0F883008F057C0C77081E065
:1022F00001C0880FCA95EAF7DF91CF911F910F9126
:102300000C94071680912D02681330C080912B0227
:1023100090912C020E946921883C910538F500E2D9
:102320000D0FCD17B9F080E28C0F883040F4C770E4
:1023300081E001C0880FCA95EAF70E940E160830A6
:1023400028F581E09D2F977001C0880F9A95EAF7D4
:102350000E940716812F0E94F4150830F0F4D77000
:1023600081E001C0880FDA95EAF70AC080E28C0F9D
:10237000883098F4C77081E001C0880FCA95EAF7E9
:10238000DF91CF911F910F910C940E16812FDF9149
:10239000CF911F910F910C94F415DF91CF911F9164
:1023A0000F9108959C01CB01233F4CE53407F9F0D0
:1023B00078F4283DFCE53F07B9F0293D4CE53407AA
:1023C00011F1273D3C4531F526E241EE61EE1EC09C
:1023D000253FFCE53F0799F070F0263F3C45D1F4DE
:1023E00027E245EE66EE12C027E245EE0EC026E279
:1023F00041EE60EE0BC027E245EE64EE07C026E238
:1024000041EE62EE03C028E241E065EE0E945E11FB
:1024100080E00895FC018281882319F010922D023A
:10242000089581E00895CF93DF93EC01FB01828151
:10243000882309F41FC1C230FCE5DF0708F41BC183
:10244000C6319CE5D90738F09E012A5F3C4529300A
:10245000310508F010C10E94591F90935E038093CC
:102460005D03C031ECE5DE0709F4C3C008F041C0EC
:10247000C8308CE5D80709F49AC0F0F4C430ECE514
:10248000DE0709F487C068F4C2308CE5D80709F488
:1024900077C0C330DC4509F0E3C080915D03826002
:1024A00076C0C630ECE5DE0709F46EC008F07BC0EC
:1024B00080915D0388606BC0CC308CE5D80709F44F
:1024C00085C068F4CA30ECE5DE0709F474C008F092
:1024D00079C00E94BF1880915D03806858C0CE30DB
:1024E0008CE5D80709F476C008F07FC080915D03C1
:1024F0008BC0CB3FECE5DE0709F44FC018F5C331C4
:102500008CE5D80709F47DC078F4C131ECE5DE072D
:1025100009F473C0C231DC4509F0A2C00E94BF18A3
:1025200080915D038F7733C0C5318CE5D80709F4FE
:1025300072C008F486C0CA3FDC4509F091C08091A2
:102540005E033EC0CF3FFCE5DF0709F45FC058F4EF
:10255000CD3F9CE5D90709F444C008F43FC0809101
:102560005E0382602DC0C130FDE5DF0709F475C050
:1025700008F45DC0C230DD4509F072C080E06EC075
:1025800080915D03816003C080915D0380618093D1
:102590005D0366C080915D0311C080915E0382601F
:1025A00080935E035DC080915D038062F0CF809177
:1025B0005D038064ECCF80915D0388608460E7CF29
:1025C0008160EECF80915D038E7FE1CF80915D03CE
:1025D0008D7FDDCF80915D03877FD9CF80915E03B2
:1025E00018C080915E038D7FDBCF80915D038F7E6D
:1025F000CECF80915D038F7DCACF80915D038F7BAD
:10260000C6CF80915D03877F8B7FC1CF80915E03B2
:102610008D7F8E7FC5CF80915D0382FB222720F9BD
:1026200091E0922790FB82F990FB83F9B0CF8091E3
:102630005E03982F909591708E7F892B90FB81F986
:10264000AFCF0E94BF1880915D0387FB222720F93E
:1026500091E0922790FB87F99ACF81E00E94F11FC9
:1026600080915D0390915E030E946A1F0E94BF18D3
:1026700080E001C081E0DF91CF910895CF93DF9397
:1026800086319C4541F5EB010E948B1E982F8A8173
:102690002091160130911701882379F09A7A81E010
:1026A00009F480E080932E02911102C069E201C01A
:1026B00065E3C9010E948C200AC080912E0281111D
:1026C00002C069E201C065E3C9010E9497200E942F
:1026D000D91E80E001C081E0DF91CF9108959093F1
:1026E0003402809333020895E0913302F091340272
:1026F000309721F00190F081E02D099480E0089559
:10270000E0913302F0913402309799F020912A0140
:10271000222359F020915D0327FF07C0DC012C9193
:1027200011962C93119725E02C930280F381E02DD4
:1027300009940895E0913302F0913402309739F012
:1027400022E0DC012C930480F581E02D09940895AA
:1027500020913102309132022817390771F090939D
:10276000320280933102E0913302F09134023097CB
:1027700021F00680F781E02D0994089520912F0221
:10278000309130022817390771F09093300280930E
:102790002F02E0913302F0913402309721F000844F
:1027A000F185E02D0994089585B7806885BF85B7C8
:1027B000806885BF089508950C94DB130C94DC1396
:1027C0000C94DB130C94DB130E94D4130E94E013CF
:1027D0000C94DE1381E008950C94EA130E945421B6
:1027E0000E9457070E940E220E949E0F0E942A0EEE
:1027F0000C94E2137F928F929F92AF92BF92CF92EE
:10280000DF92EF92FF920F931F93CF93DF93CDB799
:10281000DEB72A970FB6F894DEBF0FBECDBF0E9479
:10282000A9070E94EC13811111C08FEF89838A835D
:102830001B820E945D218160782F9D838C8349815A
:102840005A816B818D810E94AE144FC046E3A42E45
:1028500042E0B42E00E010E0702E802F0E9442076C
:102860006C01F501819091905F0188269926811471
:10287000910431F40F5F1F4F0530110569F7D5CF73
:102880008091D80281FD0E944B0780E0EE24E39402
:10289000F12C94012E213F21232B09F18E837F827D
:1028A000CE20DF2081E0CD2809F480E088870E94D7
:1028B0005D218160782F9A8789874E815F81688545
:1028C0008A850E94AE14000F111FF801EA5CFD4FCB
:1028D00080819181E826F926F182E08206C08F5F2F
:1028E000EE0CFF1C8F30A9F6C5CF0E94680E0E9427
:1028F0000E110E94C2240E94741390913502891710
:10290000C9F00E947413809335022A960FB6F8948A
:10291000DEBF0FBECDBFDF91CF911F910F91FF9012
:10292000EF90DF90CF90BF90AF909F908F907F906F
:102930000C94D2042A960FB6F894DEBF0FBECDBF1A
:10294000DF91CF911F910F91FF90EF90DF90CF908B
:10295000BF90AF909F908F907F900895CF93DF931B
:10296000CDB7DEB72B970FB6F894DEBF0FBECDBF45
:102970004F83588769877A878B87DE01119686E0B7
:10298000FD0111928A95E9F785E0FE0137960190E5
:102990000D928A95E1F749815A816B817C818D8105
:1029A0009E810E94781B2B960FB6F894DEBF0FBE57
:1029B000CDBFDF91CF910895FC01808191810E946C
:1029C0004C1E0895CF93882309F4A4C0C82F8238E1
:1029D000C1F40E94741381FD9DC069E380911601CA
:1029E000909117010E948C200E94D91E2FEF81EE3A
:1029F00094E0215080409040E1F700C0000069E37E
:102A000019C0833801F50E94741380FD83C063E50B
:102A100080911601909117010E948C200E94D91E6E
:102A20002FEF81EE94E0215080409040E1F700C00C
:102A3000000063E580911601909117010E94972094
:102A4000CF910C94D91E8438C1F40E94741382FD76
:102A500061C067E480911601909117010E948C205B
:102A60000E94D91E2FEF81EE94E0215080409040CB
:102A7000E1F700C0000067E4DDCF8CEF8C0F813AF6
:102A8000D0F46C2F80911601909117010E940C20B8
:102A9000882349F06C2F80911601909117010E94B4
:102AA00097200E94D91E6C2F8091160190911701DA
:102AB0000E948C20C5CF80E28C0F883048F4C7700C
:102AC00081E001C0880FCA95EAF70E948E1EB8CF38
:102AD000EBE5EC0FE33040F4F0E0E753FE4F80818C
:102AE00090E0CF910C94A813E8E5EC0FE73150F497
:102AF000F0E0EE0FFF1FE556FE4F80819181CF91F0
:102B00000C94BE13C03F30F08C2F0E94CA23CF918B
:102B10000C94B724CF910895882309F464C08238B7
:102B200079F40E94741381FF5EC069E380911601FD
:102B3000909117010E948C200E94D91E69E310C059
:102B40008338B1F40E94741380FF4DC063E5809117
:102B50001601909117010E948C200E94D91E63E5F6
:102B600080911601909117010E9497200C94D91E14
:102B7000843879F40E94741382FF35C067E4809131
:102B80001601909117010E948C200E94D91E67E4C3
:102B9000E7CF9CEF980F913A10F4682FE1CF90E2C5
:102BA000980F983050F4877091E001C0990F8A9582
:102BB000EAF7892F0E94941ED9CF9BE5980F933096
:102BC00020F480E090E00C94A81398E5980F9731DA
:102BD00020F480E090E00C94BE13803F20F00E942F
:102BE00032240C94B7240895CF93C82F0E94E21486
:102BF000C93349F42FEF87EE93E021508040904095
:102C0000E1F700C000008C2FCF910C948C15882325
:102C100021F00E948E1E0C94D91E0895882321F065
:102C20000E94941E0C94D91E0895CF92DF92EF92C9
:102C3000FF920F931F93CF93DF937C01062FC72F33
:102C4000FC01158112951F70D281D1110E94AB1E1B
:102C50000E94841E882379F0DD2369F080E2800FD2
:102C6000883048F082E00E94231F0E94841E91E079
:102C7000D82ED92601C0D12CCC2EC2948FE0C822E8
:102C80008C2D90E0FC01E659FF4F0C94502D8C2FB9
:102C9000807FCF70882311F0C295C07FDD2399F02B
:102CA000CC2309F4C4C180E2800F883010F00111F8
:102CB00004C08C2F0E948E1E03C08C2F0E949E1E6B
:102CC0000E94D91EB4C1802F0E948C15CC2309F418
:102CD000D3C180E2800F883010F0011104C08C2F26
:102CE0000E94941E03C08C2F0E94A41E0E94D91E15
:102CF000C3C18C2F807FCF70803211F0C295C07F0E
:102D0000002319F00130C9F022C0DD2371F0112336
:102D100041F0113031F40E94BE1E8C2B0E94C61E61
:102D2000ABC10E94BE1E8C2B1DC0112319F01130A7
:102D300009F4A2C10E94CF1E25C0DD2321F0163068
:102D400008F09AC10EC0153008F096C11BC0DD23F3
:102D500061F0112331F0F701858180FF68C18F7028
:102D600085838C2F0E94071687C1112359F00933E0
:102D700009F06EC1FFEF27EE83E0F1502040804064
:102D8000E1F764C18C2F0E940E1676C18C2F8695B8
:102D90008695837019F0813061F06EC1DD2321F0DA
:102DA000802F9C2F937002C080E090E00E94A813B7
:102DB0006BC1DD2321F0802F9C2F937002C080E037
:102DC00090E00E94BE1360C1DD23F9F0053F51F091
:102DD000063F71F0043FA9F4809157039091580386
:102DE00081600BC08091570390915803826005C0A9
:102DF0008091570390915803846090935803809377
:102E00005703802F0E94CA231EC0053F51F0063F82
:102E100071F0043FA9F480915703909158038E7F7D
:102E20000BC080915703909158038D7F05C080910E
:102E30005703909158038B7F9093580380935703C7
:102E4000802F0E9432240E94B7241EC18C2F8370D1
:102E500009F045C0D11114C1402F429546954770E5
:102E6000440F440F602F6F70862F90E0A0E0B0E019
:102E7000042E04C0880F991FAA1FBB1F0A94D2F703
:102E800004FF10C00FE010E020E030E004C0000FAD
:102E9000111F221F331F4A95D2F7009510952095D8
:102EA000309503C000E010E09801C695C695C37048
:102EB000BC01CD01602B712B822B932BC23049F0CA
:102EC00058F4C13019F00E94C91CDAC00E94B71C26
:102ED000D7C00E94DB1CD4C00E94B51CD1C0DD232A
:102EE00019F08C2F817001C08695882309F4C8C021
:102EF000402F429546954770440F440F602F6F70E6
:102F0000862F90E0A0E0B0E0042E04C0880F991F47
:102F1000AA1FBB1F0A94D2F704FF10C00FE010E0F5
:102F200020E030E004C0000F111F221F331F4A951C
:102F3000D2F7009510952095309503C000E010E081
:102F40009801C695C695C370BC01CD01602B712B4D
:102F5000822B932BC23049F058F4C13019F00E94F3
:102F60008E1D8EC00E947C1D8BC00E94A01D88C03B
:102F70000E94EF1C85C0CF70DD2339F08C2F0E949A
:102F8000151D802F0E9407167BC0802F0E940E16F1
:102F90008C2F0E94361D74C0023F01F128F4003FBF
:102FA00041F0013FA1F03FC0033FF9F0043F39F188
:102FB0003AC0DD2341F0153008F05EC08C2F8F71D0
:102FC0000E945B1D59C0163008F056C0F7CFDD23B4
:102FD00039F08C2F8F710E94151D4EC0DD23C9F36F
:102FE0008C2F8F710E94361D47C0DD2329F08C2F56
:102FF0008F710E94001D40C00E94FB1C3DC0DD235C
:1030000049F0CF718C2F0E94151D63E08C2F0E9418
:103010000E1F32C081E00E94231F123068F182E04F
:103020000E94231F29C0DD2331F0112391F2802F4C
:103030000E94E21421C0112399F2093349F49FEF51
:10304000E7EEF3E09150E040F040E1F700C000000F
:10305000802F0E948C1510C04C2F4F70602FC7011D
:103060000E9434050E94261C0FC04C2F4F70602F09
:10307000C7010E94370508C088EF8C0D843020F40A
:103080000E9474130E94D204DD20C9F00E94801EA9
:1030900080FD15C0F70112820E947A1E0E94151D44
:1030A000C7010E9480180E947A1EDF91CF911F9164
:1030B0000F91FF90EF90DF90CF900C94361DDF9131
:1030C000CF911F910F91FF90EF90DF90CF900895D7
:1030D0000F931F93CF93DF93EC01688179818A81ED
:1030E0000E94571E8C010E94B21D0E94A31CB801B1
:1030F000CE010E941516DF91CF911F910F91089577
:10310000CF93DF93FC019081818123813481232B34
:1031100031F08F3F31F481E09F3F19F403C081E02B
:1031200001C080E080FD0EC0EF01CF010E94EB04E2
:10313000882341F0CE010E946818CE01DF91CF9123
:103140000C94B604DF91CF9108950E94AB1E0E94AB
:10315000BB1E0E94D91E0E94E1250E94B72480E078
:1031600090E00E94A81380E090E00C94BE13809140
:103170001601909117010E94A2200C94A5180E949C
:103180009B1E0C94B718E92FE295EF704E2F50E07C
:10319000FA013297EE30F105B0F4E658FF4F0C9487
:1031A000502D803F91F018F4883E68F40EC0843FA3
:1031B00051F40BC0883E48F0813F29F406C093FBD0
:1031C000882780F9089580E0089581E008950E949D
:1031D0004C1E0E94C3180895CF93DF9300D000D0F7
:1031E0001F92CDB7DEB70F900F900F900F900F90FA
:1031F000DF91CF910895CF93DF9300D000D000D01E
:10320000CDB7DEB726960FB6F894DEBF0FBECDBFA2
:10321000DF91CF9108951F93CF93DF93C091410227
:1032200016E080914202C81799F0D0E01C9FF0018F
:103230001D9FF00D1124ED5BFD4F40815181628196
:103240007381848195810E94FB182196C770E9CF14
:10325000DF91CF911F9108954091730250917402B4
:103260006091750270917602809177029091780258
:103270000C94FB180F931F93CF93DF9380917802E8
:1032800082958F7009F05DC080917502882309F4E2
:1032900058C0809141021091420260917302709176
:1032A0007402C0917602D091770291E06F3F09F0ED
:1032B00090E0292F06E0811709F443C0209721F000
:1032C0007F3F21F030E003C031E001C0322F90E0B9
:1032D00030FD34C0089FF001099FF00D1124DF017B
:1032E000AD5BBD4F11963C911197371327C03C91B0
:1032F000361324C012963C91129731111FC01396B9
:103300004D915C9114974C1B5D0B483C5105B0F4FA
:10331000809178028F70806180937802E85BFD4F26
:1033200080818F708061808383E792E00E948018A3
:10333000DF91CF911F910F910C940B19019687701B
:10334000BACFDF91CF911F910F9108959F92AF92C5
:10335000BF92CF92DF92EF92FF920F931F93CF9382
:10336000DF93CDB7DEB761970FB6F894DEBF0FBE1F
:10337000CDBF8C0185E0F801DE011D9601900D9214
:103380008A95E1F7F80140815181E28090917302C2
:1033900060917402209176023091770221153105F7
:1033A00031F06F3F31F481E09F3F19F403C081E0B9
:1033B00001C080E0F82FF1709F2E80FD46C1F8011A
:1033C000A380B48083E7C82E82E0D82EF0907502E7
:1033D000F501E21BF30BFF2009F4DFC080917802B6
:1033E000E83CF10508F09BC0282F207F09F052C06F
:1033F000561313C0491311C0FE2CE1100EC08F707C
:103400008061809378020E942C19C6010E94801866
:1034100080917802F801858358C1AB2831F05F3F75
:1034200031F481E04F3F19F403C081E001C080E036
:1034300080FD03C081E08E2502C080E090E0F82F7F
:10344000F170FF2E80FF1CC080914102209142024A
:1034500036E0821709F417C190E0389FF001399FD8
:10346000F00D1124ED5BFD4F6181561306C06081A4
:10347000461303C06281E61203C001968770E9CF4C
:10348000FE2CEE2009F421C18091780281608093A6
:1034900078025AC0561306C0491304C0E11002C096
:1034A000F8019FC04D875E878D859E850E94E71835
:1034B000882379F1EE2069F120917802822F82959C
:1034C0008F7090E0029774F0809173029091740273
:1034D00098878F831986BB86AA862C87CE0107968C
:1034E0000E94801886E0F801A3E7B2E001900D92F7
:1034F0008A95E1F70E943A190E942C190DC05617BF
:1035000029F14D875E878D859E850E94E718811180
:103510002CC0C8010E948018FF24F394D6C0282F25
:10352000207F69F77A2DB98AA88A6E2D89890E9431
:10353000EC1883E792E00E94801886E0F601119271
:103540008A95E9F70E942C19F12CBFC04913D9CFF5
:10355000E110D7CFF8018583C8010E94801886E06A
:10356000F60111928A95E9F7B0C0EE2091F2209110
:103570007802822F82958F7090E002970CF4B2CF80
:1035800080917302909174029A8389831B82BD8219
:10359000AC822E83CE010196A3CFE83CF10508F062
:1035A00047C0FE2CEE2009F4B4CF561330C04913A7
:1035B0002EC02091780220FD21C0822F82958F702D
:1035C000482F50E041155105C9F0F80125834F30CF
:1035D000510541F08F5F982F9295907F822F8F70C9
:1035E000892B8583C8010E94801886E0F801A3E733
:1035F000B2E001900D928A95E1F742C086E0F801B1
:10360000A3E7B2E001900D928A95E1F75EC04D8785
:103610005E878D859E850E94E718811163CF80911A
:103620007802816080937802C8010E9480184DC0A2
:103630007A2DB98AA88A6E2D89890E94EC1886E0B5
:10364000F60111928A95E9F71BC0EE2009F461CFCB
:103650004D875E878D859E850E94E718F82E88230A
:1036600009F457CF86E0F801A3E7B2E001900D928C
:103670008A95E1F783E792E00E94DC140E943A19F0
:103680000E942C1922C04D875E878D859E850E94E1
:103690004C1E292F22952F70223028F49F7039F06C
:1036A000811105C00BC0243028F49F7049F4805E5E
:1036B000883020F0C8010E9480189F2CF92C05C08A
:1036C000F8019581907F99F7F9CF8F2D61960FB60C
:1036D000F894DEBF0FBECDBFDF91CF911F910F9148
:1036E000FF90EF90DF90CF90BF90AF909F900895A4
:1036F0001F93CF93DF93CDB7DEB72C970FB6F89417
:10370000DEBF0FBECDBF4F83588769877A878B870F
:103710009C87CE0107960E94A6198823D1F09F812D
:1037200088852A853B85232B31F08F3F31F481E05A
:103730009F3F19F403C081E001C080E080FD47C0D5
:103740004F81588569857A858B859C850E94FB18F9
:103750003EC086E0FE013796DE01119601900D9283
:103760008A95E1F7FF81E8856A857B85611571059A
:1037700031F0EF3F31F481E0FF3F19F403C081E005
:1037800001C080E080FD23C02091420230E0C901E9
:103790000196877099274091410250E08417950760
:1037A000F1F1F983EA837D836C8396E0929FD001E7
:1037B000939FB00D1124AD5BBD4FFE01319601907A
:1037C0000D929A95E1F7809342020E940B1916E040
:1037D0008091410290914202891771F1189FC001B6
:1037E00011248D5B9D4F0E94A619882329F1E09139
:1037F00041021E9FF0011124ED5BFD4F408151817C
:1038000062817381848195810E94FB1880914102BD
:1038100090E001968770992780934102D9CF0E944A
:10382000BF181092420210924102E3E7F2E086E0F4
:10383000DF011D928A95E9F72C960FB6F894DEBF4A
:103840000FBECDBFDF91CF911F910895EF92FF92F0
:103850000F931F93CF93DF938C01892B09F46CC0D6
:10386000F12CEE24E394E8012196F8018491843749
:1038700040F4843008F051C0813081F0823019F179
:103880005BC0853709F444C0A8F19CE7980F9037D6
:1038900008F052C08F770E948C1541C00E5F1F4FF9
:1038A000FE01849190E2980F983050F48770FE2DBD
:1038B00001C0FF0F8A95EAF78F2F0E94AE1E14C039
:1038C0000E94E2142DC00E5F1F4FFE01849190E212
:1038D000980F983060F48770FE2D01C0FF0F8A9515
:1038E000EAF78F2F0E94B41E0E94D91E19C00E94B1
:1038F0008C1516C00E5F1F4FFE01C491CC2381F0C2
:103900008FE99FE00197F1F700C00000C150F6CFAA
:103910000E5F1F4FFE01F49003C00E94E2148E015F
:103920008F2D882309F49FCFEFE9FFE03197F1F75E
:1039300000C000008150F5CFDF91CF911F910F9112
:10394000FF90EF900895089508950C94A41C0C9492
:10395000A51C0E94A71C6093AF027093B0028093D5
:10396000B1029093B2020C94A5180C94A91C0F9369
:103970001F930091AF021091B0022091B1023091DB
:10398000B202602B712B822B932B1F910F910C9401
:10399000A91C0F931F930091AF021091B0022091C8
:1039A000B1023091B20260237123822393231F91CD
:1039B0000F910C94A91C0F931F930091AF021091CB
:1039C000B0022091B1023091B202602771278227A4
:1039D00093271F910F910C94A91C0C94A41C0E9476
:1039E000ED1C6093AB027093AC028093AD02909398
:1039F000AE020C94A51860E070E0CB010C94EF1CB3
:103A00000F931F9341E050E060E070E08A019B015A
:103A100004C0000F111F221F331F8A95D2F7C9015E
:103A2000B8011F910F910C94EF1C0F931F9341E06D
:103A300050E060E070E004C0440F551F661F771F20
:103A40008A95D2F78091AB029091AC02A091AD0221
:103A5000B091AE028A019B01082B192B2A2B3B2B1C
:103A6000C901B8011F910F910C94EF1C0F931F9384
:103A700041E050E060E070E004C0440F551F661F55
:103A8000771F8A95D2F740955095609570958091F3
:103A9000AB029091AC02A091AD02B091AE028A014E
:103AA0009B01082319232A233B23C901B8011F9135
:103AB0000F910C94EF1C0F931F9341E050E060E0D6
:103AC00070E004C0440F551F661F771F8A95D2F718
:103AD0008091AB029091AC02A091AD02B091AE0288
:103AE0008A019B01082719272A273B27C901B8010A
:103AF0001F910F910C94EF1C0F931F930091AB0239
:103B00001091AC022091AD023091AE02602B712B6E
:103B1000822B932B1F910F910C94EF1C0F931F93EB
:103B20000091AB021091AC022091AD023091AE0237
:103B300060237123822393231F910F910C94EF1C18
:103B40000F931F930091AB021091AC022091AD0234
:103B50003091AE0260277127822793271F910F9122
:103B60000C94EF1C08952FE0929F800D1124E82FF4
:103B7000E695E695E695877051E001C0550F8A9568
:103B8000EAF785E0E89FF0011124E758FD4F20E0B7
:103B900030E070E04081CB01022E02C096958795FF
:103BA0000A94E2F781708195842785238427819385
:103BB0002F5F3F4F2530310569F708952FE0929F21
:103BC000800D1124682F669566956695982F9770DD
:103BD00085E0689FB001112440E050E080E0FB01E7
:103BE000E40FF51FE758FD4F208130E0092E02C099
:103BF000369527950A94E2F721703327042E01C0E9
:103C0000220F0A94EAF7822B4F5F5F4F4530510530
:103C100031F70895BF92CF92DF92EF92FF920F9308
:103C20001F93CF93DF938C01C090AB02D090AC0276
:103C3000E090AD02F090AE028091AF029091B002A0
:103C4000A091B102B091B202C82AD92AEA2AFB2A6D
:103C5000CFE1D0E0D701C6010C2E04C0B695A795E0
:103C6000979587950A94D2F780FD04C0219790F725
:103C7000B12C07C0BC2EB8018C2F0E9453050197B0
:103C8000A9F38B2DDF91CF911F910F91FF90EF90B2
:103C9000DF90CF90BF900895CF93DF93EC010E9407
:103CA0000A1EBE010E945305DF91CF9108951F9314
:103CB000CF93DF93EB0190914002992321F0CB0148
:103CC0000E944C1E13C0882349F0CB010E940A1E9B
:103CD000182F682FCE010E94B31D04C0CB010E9493
:103CE000DE1D182FBE01812F0E945305DF91CF9159
:103CF0001F9108958091B3028595859585950895C6
:103D00008091B302877008959091B302977081E01B
:103D100009F480E008958091D70208959091D70228
:103D2000892B8093D702089580959091D70289239B
:103D30008093D70208951092D70208959091D602E9
:103D4000892B8093D602089580959091D60289237D
:103D50008093D60208951092D60208959091D502CC
:103D6000892B8093D502089580959091D50289235F
:103D70008093D50208951092D50208958091B402DF
:103D8000089508950C94C11E0C94C21E9091B40223
:103D9000981721F08093B4020C94C41E089580916A
:103DA000B402882329F01092B40280E00C94C41E5F
:103DB0000895E0911601F09117018091D702808358
:103DC000E0911601F091170190818091D602892B24
:103DD0008083E0911601F091170190818091D502C6
:103DE000892B80838091B402882381F0E0911601B1
:103DF000F09117019081892B808380911601909119
:103E000017010E94F61F81110E94CF1E809116019A
:103E1000909117010C9480130C94C11E98E0899F17
:103E200090011124262B2093B3020E94151D80912E
:103E3000B3028595859585950C940C1F1092B3025D
:103E400080E00C940C1F2091B30280958223809314
:103E5000B302982F977079F430E0482F082E000CA9
:103E6000550B2417350739F08595859585950E9462
:103E7000361D0C941E1F089580E090E00E94E72DEF
:103E800021E08C3E9E4F09F020E0822F089582E0D1
:103E900090E00C94D92D682F82E090E00C94ED2DE9
:103EA00083E090E00C94D92D682F83E090E00C948F
:103EB000ED2DCF9384E090E00E94D92DC82F81E2B0
:103EC00090E00E94D92D2C2F30E0A901582BCA0177
:103ED000CF910895CF93C92F682F84E090E00E947E
:103EE000ED2D6C2F81E290E0CF910C94ED2D86E0CA
:103EF00090E00C94D92D682F86E090E00C94ED2D85
:103F0000AB01BC018FE090E00C94FF2DAB01BC0134
:103F100083E190E00C94FF2D60E070E0CB010C9405
:103F2000861F60E070E0CB010E94801F0C948C1F04
:103F30006CEE7EEF80E090E00E940B2E60E082E06D
:103F400090E00E94ED2D60E083E090E00E94ED2D76
:103F50001092AF021092B0021092B1021092B2020F
:103F600060E084E090E00E94ED2D60E081E290E06E
:103F70000E94ED2D60E085E090E00E94ED2D60E074
:103F800086E090E00E94ED2D6FEF87E090E00E94C8
:103F9000ED2D40E050E0BA0188E090E00E94FF2D56
:103FA00060E08DE090E00E94ED2D40E050E0BA012D
:103FB00088E190E00E94FF2D60E087E190E00E94A0
:103FC000ED2D40E050E0BA018CE190E00E94FF2D21
:103FD00060E080E290E00E94ED2D0C94911F0C9423
:103FE000981F682F8EE090E00C94ED2DFC01329626
:103FF00080912A01882331F080915D0387FF02C000
:104000009EE101C096E080E0915028F021912223AA
:10401000D9F38F5FF9CF0895662351F120912A01DA
:104020002223E9F020915D0327FF19C0462F469512
:10403000469546954E31E0F4677021E030E002C0CD
:10404000220F331F6A95E2F7FC01E40FF11D828114
:1040500090E02823392381E0232B69F409C0FC0177
:10406000329608962191621729F0E817F907D1F7DF
:1040700080E0089581E008959C01FC0132969FEF55
:1040800080E04191461789F09F3F19F4411101C02A
:10409000982F8F5F8630A9F79F3F39F0F901E90F1C
:1040A000F11D97FDFA956283089508959C012A5F9A
:1040B0003F4FFC014281461301C0128201968217D4
:1040C0009307B9F70895262F2695269526952E3124
:1040D00068F4FC01E20FF11D677021E030E001C0DF
:1040E000220F6A95EAF78281282B22830895262FD2
:1040F0002695269526952E3170F4FC01E20FF11DD0
:10410000677021E030E001C0220F6A95EAF7209540
:10411000828128232283089520912A01222329F0D5
:1041200020915D0327FD0C9463200C943C2020918A
:104130002A01222329F020915D0327FD0C9477208A
:104140000C94562020912A01FC013296222331F052
:1041500080915D0387FF02C08EE101C086E0DF0130
:104160001D928A95E9F7089508950C94B4200C9453
:10417000B420CF930E94B7200E94A9070E94B520C7
:10418000C0E08C2F0E944207892B29F4CF5FC530F5
:10419000C1F780E001C081E0CF9108950C94B42074
:1041A0000C94CE200E94D02080916303843009F4C7
:1041B0003CC01092D90220E488E190E00FB6F89458
:1041C000A895809360000FBE2093600080E00E945D
:1041D000AD1080E00E94D2040E94650E8091DA0248
:1041E00081110AC081E08093DA02809121038170FD
:1041F0008093DB020E94980D0E94D02083B7817FBC
:10420000846083BF83B7816083BF7894889583B7C8
:104210008E7F83BF0FB6F894A89580916000886167
:1042200080936000109260000FBE08950C94B4203B
:104230000E94BF180E949E0F0E9474130E94D20415
:104240001092DA028091DB0281110E945D0E0E94C1
:10425000AA0D0C9416211F920F920FB60F921124E3
:104260008F939F93AF93BF938091D902811113C015
:104270008091590390915A03A0915B03B0915C0324
:104280004196A11DB11D8093590390935A03A093A9
:104290005B03B0935C03BF91AF919F918F910F909F
:1042A0000FBE0F901F90189582E084BD93E095BDDE
:1042B0009AEF97BD80936E0008952FB7F894809180
:1042C000590390915A03A0915B03B0915C032FBFF7
:1042D00008959C014FB7F8948091590390915A0327
:1042E000A0915B03B0915C034FBF821B930B0895B9
:1042F00078941F920F920FB60F9211248F939F9371
:10430000AF93BF938091590390915A03A0915B039F
:10431000B0915C030196A11DB11D80935903909348
:104320005A03A0935B03B0935C03BF91AF919F913D
:104330008F910F900FBE0F901F90189581E0809382
:10434000E00080E28093D8001092C9008FE19EE4E3
:104350000197F1F700C0000087E090EBDC0180934B
:104360006C0390936D03A0936E03B0936F039CE076
:1043700088E10FB6F894A895809360000FBE9093E3
:104380006000FFCFAF92BF92CF92DF92EF92FF9289
:104390000F931F93CF93C0E0CC24C394D12CE82E6D
:1043A000F12C8C2F0E9442075C0100E010E0C60156
:1043B000002E02C0880F991F0A94E2F78A219B21E0
:1043C000892B31F40F5F1F4F0F30110581F70AC0A1
:1043D000602F7C2F80E00E943805E816F90691F7DF
:1043E00081E004C0CF5FC530E1F680E0CF911F913E
:1043F0000F91FF90EF90DF90CF90BF90AF90089516
:10440000CF93C82F8CE20E94C221882321F08C2FE9
:10441000CF910C94C22180E0CF910895CF930E9458
:104420003C1F811102C00E94EF1FC5E6C15049F038
:104430000E94A9078FE39CE90197F1F700C00000F3
:10444000F5CF89E20E940022811120C18AE20E94F8
:10445000002281110E94EF1F85E00E94002281113D
:104460000E949E210E94471F8093D80287E00E94ED
:1044700000228823A9F18BE10E940022882351F0B9
:104480008091D80281FB222720F991E0922790FBAE
:1044900081F90EC08EE00E940022882361F0809195
:1044A000D80282FB222720F991E0922790FB82F923
:1044B0008093D80215C080E10E9400229091D8021A
:1044C000882341F093FB222720F981E0822780FB9B
:1044D00093F904C0892F809580FB90F99093D802BE
:1044E0008091D8020E944B1F0E94591F90935E0337
:1044F00080935D0380EE0E940022882341F080912A
:104500005D03982F909590FB80F980935D0389E37C
:104510000E940022882359F080915D0381FB2227AD
:1045200020F991E0922790FB81F980935D0382EE60
:104530000E940022882359F080915D0382FB22278C
:1045400020F991E0922790FB82F980935D0386EE3B
:104550000E940022882359F080915D0383FB22276B
:1045600020F991E0922790FB83F980935D0383EE1D
:104570000E940022882359F080915D0384FB22274A
:1045800020F991E0922790FB84F980935D0385E305
:104590000E940022882359F080915D0385FB222729
:1045A00020F991E0922790FB85F980935D0381E3E8
:1045B0000E940022882359F080915D0386FB222708
:1045C00020F991E0922790FB86F980935D0381E1C9
:1045D0000E940022882359F080915D0387FB2227E7
:1045E00020F991E0922790FB87F980935D038091F9
:1045F0005D0390915E030E946A1F87E20E94002281
:10460000C82F8EE10E9400228111C2608FE10E94BA
:1046100000228111C46080E20E9400228111C860E2
:1046200081E20E9400228111C06182E20E94002288
:104630008111C06283E20E9400228111C06484E281
:104640000E940022882311F0C06802C0CC2329F008
:104650008C2F0E94541F6C2F03C00E94501F682F84
:1046600070E080E090E00E94B51C8FE00E94002284
:10467000882319F081E00E94F11F85E10E94002249
:10468000882321F080E0CF910C94F11FCF91089501
:104690008091E30280FF0BC060911D0185E0689F5F
:1046A000B001112475956795759567952BC081FFAD
:1046B00009C060911D0185E0689FB00111247595C6
:1046C000679520C082FF07C060911D0185E0689F4B
:1046D000B001112417C09091E2029923D1F06091AA
:1046E0001C01961788F720911D0185E0289F9001F5
:1046F0001124929FA001939F500D112470E0CA01D4
:104700000E941A2D6038710540F46115710519F485
:1047100006C065E070E0862F08958FE7089581E078
:1047200008958091E30280FF08C06091190170E054
:10473000759567957595679521C081FF06C0609155
:10474000190170E07595679519C082FF04C06091EA
:10475000190170E010C09091E202992399F06091E4
:1047600018019617A0F780911901899FC0011124A3
:1047700070E00E941A2D6038710540F461157105D2
:1047800019F406C061E070E0862F08958FE7089560
:1047900081E00895803F21F40E944823819504C060
:1047A000813F29F40E9448238093E7020895823FC5
:1047B00021F40E944823819504C0833F29F40E947C
:1047C00048238093E6020895893F19F40E949123BB
:1047D00005C08A3F31F40E94912381958093E802BD
:1047E00008958B3F21F40E949123819504C08C3F52
:1047F00029F40E9491238093E9020895843F21F4D3
:104800008091E502816017C0853F21F48091E50227
:10481000826011C0863F21F48091E50284600BC064
:10482000873F21F48091E502886005C0883F31F41C
:104830008091E50280618093E50208958D3F21F427
:104840008091E30281600BC08E3F21F48091E302EE
:10485000826005C08F3F29F48091E30284608093D9
:10486000E3020895803F39F48091E70287FF6CC02E
:104870001092E70269C0813F29F48091E70218167F
:10488000BCF362C09091E602823F29F497FF5CC0BE
:104890001092E60259C0833F19F41916CCF354C0A4
:1048A000893F41F48091E80218160CF04DC0109237
:1048B000E8024AC08A3F29F48091E80287FF44C099
:1048C000F6CF8B3F39F48091E90287FF3DC010920B
:1048D000E9023AC08C3F29F48091E9021816BCF332
:1048E00033C0843F21F48091E5028E7F17C0853F5D
:1048F00021F48091E5028D7F11C0863F21F48091E3
:10490000E5028B7F0BC0873F21F48091E502877F12
:1049100005C0883F31F48091E5028F7E8093E502E7
:1049200013C08D3F21F48091E3028E7F0BC08E3F38
:1049300021F48091E3028D7F05C08F3F29F480919F
:10494000E3028B7F8093E3028091E60281110EC027
:104950008091E70281110AC08091E802811106C0AE
:104960008091E902811102C01092E202089584EE62
:1049700092E00E949A130E945D219093E10280933D
:10498000E0020895CF93DF9300D000D000D0CDB7E0
:10499000DEB786E0E4EEF2E0DE01119601900D92C2
:1049A0008A95E1F78091E602811105C08091E702C6
:1049B000882309F47AC08091DE029091DF020E9480
:1049C0006921AC019091E202992339F020911E01F6
:1049D00030E02417350758F068C020911F018AE0A5
:1049E000289F900111242417350718F05EC09F3FBF
:1049F00019F09F5F9093E2021092E8021092E90290
:104A00008091E602181624F40E9448238093E6025F
:104A10008091E60287FF05C00E944823819580931C
:104A2000E6028091E702181624F40E94482380933E
:104A3000E7028091E70287FF05C00E944823819525
:104A40008093E7023091E6023323E1F02091E70200
:104A50002223C1F045EB3403C0011124992319F03E
:104A60009093E60203C081E08093E60235EB2303D6
:104A7000C0011124992319F09093E70203C081E04B
:104A80008093E7020E94B7248091E0029091E102B6
:104A90009093DF028093DE0286E0FE013196A4EE61
:104AA000B2E001900D928A95E1F78091E8028111C0
:104AB00005C08091E902882309F47AC08091DC0264
:104AC0009091DD020E946921AC019091E20299234C
:104AD00039F020911A0130E02417350758F068C0EA
:104AE00020911B018AE0289F90011124241735078B
:104AF00018F05EC09F3F19F09F5F9093E202109202
:104B0000E6021092E7028091E802181624F40E944F
:104B100091238093E8028091E80287FF05C00E94FC
:104B2000912381958093E8028091E902181624F47C
:104B30000E9491238093E9028091E90287FF05C0DA
:104B40000E94912381958093E9023091E8023323FA
:104B5000E1F02091E9022223C1F045EB3403C001CA
:104B60001124992319F09093E80203C081E0809307
:104B7000E80235EB2303C0011124992319F0909327
:104B8000E90203C081E08093E9020E94B72480918A
:104B9000E0029091E1029093DD028093DC0286E0D6
:104BA000FE013196A4EEB2E001900D928A95E1F7F4
:104BB00026960FB6F894DEBF0FBECDBFDF91CF9122
:104BC0000895E4EEF2E086E0DF011D928A95E9F7B0
:104BD0001092E2021092E302089580910A03089570
:104BE000CF93DF9300D01F92CDB7DEB790916303D0
:104BF000943019F589837B836A8382E08093E9008E
:104C00008FEF9091E800815095FD06C095ED9A9543
:104C1000F1F700008111F5CF8091E80085FF0DC00C
:104C200040E050E063E070E0CE0101960E944C2825
:104C30008091E8008E778093E8000F900F900F909E
:104C4000DF91CF910895CF93DF93EC010E942F283D
:104C5000823011F0843031F4BE0184E0DF91CF91D5
:104C60000C94F025DF91CF910895BC0183E00C9462
:104C7000F025CF93DF93EC010E942F28823011F0B2
:104C80008430F9F482E08093E9008FEF9091E8009E
:104C9000815095FD06C095ED9A95F1F700008111C0
:104CA000F5CF8091E80085FF0CC040E050E066E061
:104CB00070E0CE010E944C288091E8008E778093AE
:104CC000E800DF91CF910895CF93DF93EC010E942C
:104CD0002F28823011F08430D9F580912A01882361
:104CE00039F080915D0387FF03C060E282E002C07B
:104CF00068E081E08093E9008FEF9091E8008150B7
:104D000095FD06C095ED9A95F1F700008111F5CF5C
:104D10008091E80085FF1CC080912A01811105C0A7
:104D200040E050E068E070E003C070E040E050E038
:104D3000CE010E944C288091E8008E778093E80095
:104D400080E2FE01AAEEB2E001900D928A95E1F7B1
:104D5000DF91CF91089580916203811109C00E9473
:104D6000DD290E943A2A8091E20084608093E2006B
:104D70000895109262030895089508950C941821DF
:104D800042E061EC81E00E94562942E261EC82E05F
:104D90000C94562980916503833009F460C030F487
:104DA000813071F0823009F499C008958A3009F495
:104DB00085C08B3009F46BC0893009F0A7C020C0D2
:104DC00080916403813A09F0A1C08091E800877F57
:104DD0008093E8008091680390916903892B21F406
:104DE00060E28AEE92E003C060E080E090E070E074
:104DF0000E9497288091E8008B778093E8000895BF
:104E000080916403813209F081C0809168039091A0
:104E10006903029708F07AC08091E800877F809349
:104E2000E8008091E80082FD05C080916303811154
:104E3000F8CF6CC02091F3008091F20090E0922BAB
:104E4000029729F48091F1008B7F813021F48091C9
:104E5000F10080930A038091E8008B7753C0809122
:104E60006403813A09F052C080916803909169030C
:104E7000892B09F04BC08091E800877F8093E80080
:104E80008091E80080FFFCCF80912A0136C080919C
:104E900064038132D9F58091680390916903892B6D
:104EA000A9F58091E800877F8093E8000E948B2914
:104EB0008091660380932A010C94BF18809164034B
:104EC000813221F58091E800877F8093E8000E947D
:104ED0008B298091670380930B030895809164036D
:104EE000813AA1F48091E800877F8093E800809167
:104EF000E80080FFFCCF80910B038093F10080914C
:104F0000E8008E778093E8000C948B29089584B78D
:104F1000877F84BF0FB6F894A89580916000886160
:104F200080936000109260000FBE90E080E80FB6A2
:104F3000F89480936100909361000FBE0E94E41387
:104F40000E94DD290E943A2A8091E20084608093C9
:104F5000E20078940E94CF2C0E94EE1380E291E050
:104F60000E946F1380916303853069F40E94D22000
:104F7000809161038823B1F30E94B920882391F3C3
:104F80000E943628EFCF0E94FA13ECCF0C94C8276A
:104F9000292F332723303105C9F060F42130310542
:104FA00081F02230310509F04AC08BE390E02AEE0F
:104FB00036E049C02132310511F12232310579F153
:104FC0003EC082E190E025E237E03DC09927813084
:104FD000910561F040F08230910559F0039779F521
:104FE000E2ECF6E008C0E6EEF6E005C0E4EDF6E03F
:104FF00002C0E8ECF6E0849190E09F0124C06115C6
:10500000710541F061307105D1F489E090E025E14E
:1050100037E019C089E090E02CEF36E014C061154C
:10502000710541F06130710551F48CEB90E027E39C
:1050300037E009C080E490E023EF37E004C080E06F
:1050400090E020E030E0FA013183208308958091E0
:105050006303843011F081E0089582E00895809127
:105060000C03811102C00C942728089580E189BDAA
:1050700082E189BD09B400FEFDCF8091D8008F7D0B
:105080008093D8008091E00082608093E00080915E
:10509000E00081FDFCCF0895CF92DF92EF92FF9266
:1050A0000F931F93CF93DF93EC018B017A010E9442
:1050B000AA29811133C0E114F10439F0F70180818C
:1050C0009181081B190BC80FD91FC12CD12C0115B8
:1050D000110519F18091E80085FD16C08091E80066
:1050E0008E778093E800E114F10449F0F7018081A4
:1050F0009181C80ED91ED182C08285E00FC00E9466
:10510000AA29882321F30AC089918093F1000150D4
:105110001109FFEFCF1ADF0ADACF80E0DF91CF91DC
:105120001F910F91FF90EF90DF90CF900895209105
:105130006A0330916B032617370748F06115710534
:1051400039F42091E8002E772093E80001C0B901DE
:10515000FC0120E06115710579F1809163038823DA
:10516000F1F18530F1F18091E80083FD3CC0809140
:10517000E80082FD2EC08091E80080FFEBCF2091F7
:10518000F3008091F20090E0922B6115710551F0CF
:105190008830910538F421912093F1006150710914
:1051A0000196F3CF21E0089709F020E08091E80014
:1051B0008E778093E800CECF2111CFCF0AC08091A7
:1051C0006303882361F0853061F08091E80083FDFE
:1051D0000AC08091E80082FFF2CF80E0089582E06B
:1051E000089583E0089581E0089520916A03309145
:1051F0006B032617370748F06115710539F42091C4
:10520000E8002E772093E80001C0B901FC0120E0FE
:105210006115710591F180916303882309F440C001
:10522000853009F43FC08091E80083FD3DC0809146
:10523000E80082FD2FC08091E80080FFE9CF209137
:10524000F3008091F20090E0922B6115710559F006
:105250008830910540F424912093F10031966150FB
:1052600071090196F2CF21E0089709F020E08091C2
:10527000E8008E778093E800CBCF2111CCCF0AC015
:1052800080916303882361F0853061F08091E800AC
:1052900083FD0AC08091E80082FFF2CF80E008958C
:1052A00082E0089583E0089581E00895982F973073
:1052B00068F59093E900981739F07091EC0020910F
:1052C000ED005091F00003C0242F762F50E021FD17
:1052D00002C09F5FECCF3091EB003E7F3093EB003C
:1052E0003091ED003D7F3093ED003091EB00316067
:1052F0003093EB007093EC002093ED005093F0009E
:105300002091EE0027FDE5CF80E008958F70809317
:10531000E90081E008958091640387FF11C08091C6
:10532000E80082FD05C0809163038111F8CF11C0B0
:105330008091E8008B770BC080916303882349F04C
:105340008091E80080FFF8CF8091E8008E7780930D
:10535000E80008952091E4003091E50095E6409141
:10536000EC00842F817040FF23C08091E80080FD15
:105370001DC080916303882399F0853099F0809156
:10538000EB0085FD11C04091E4005091E500241729
:10539000350729F3915011F09A01E1CF84E0089587
:1053A00082E0089583E0089581E0089580E0089503
:1053B0004091E80042FFDDCF08950E944B2A0E94F1
:1053C000532AE0EEF0E0808181608083E8EDF0E038
:1053D00080818F77808319BCA7EDB0E08C918E7FA0
:1053E0008C9380818F7E80831092620308950F9347
:1053F0001F93CF93DF930E944B2A0E94532AC8ED3C
:10540000D0E088818F7788838881806888838881CD
:105410008F7D888319BC1092630310925F031092F2
:1054200061031092600300EE10E0F80180818B7F31
:10543000808388818160888342E060E080E00E9410
:105440005629E1EEF0E080818E7F8083E2EEF0E08D
:10545000808181608083808188608083F801808181
:105460008E7F8083888180618883DF91CF911F91B7
:105470000F910895E8EDF0E080818F7E8083E7ED65
:10548000F0E080818160808384E082BF81E080934E
:1054900062030C94F729E8EDF0E080818E7F808331
:1054A0001092E20008951092DA001092E10008953F
:1054B0001F920F920FB60F9211242F933F934F9389
:1054C0005F936F937F938F939F93AF93BF93EF936C
:1054D000FF938091E10082FF0BC08091E20082FF88
:1054E00007C08091E1008B7F8093E1000E94CE2C69
:1054F0008091DA0080FF1FC08091D80080FF1BC020
:105500008091DA008E7F8093DA008091D90080FF4D
:105510000DC080E189BD82E189BD09B400FEFDCFE7
:1055200081E0809363030E94AB2605C019BC1092F2
:1055300063030E94B9268091E10080FF19C0809129
:10554000E20080FF15C08091E2008E7F8093E20030
:105550008091E20080618093E2008091D8008062B7
:105560008093D80019BC85E0809363030E94BD2618
:105570008091E10084FF30C08091E20084FF2CC064
:1055800080E189BD82E189BD09B400FEFDCF809133
:10559000D8008F7D8093D8008091E1008F7E80932A
:1055A000E1008091E2008F7E8093E2008091E20032
:1055B00081608093E20080915F03882311F084E092
:1055C00007C08091E30087FD02C081E001C083E055
:1055D000809363030E94BE268091E10083FF29C06F
:1055E0008091E20083FF25C08091E100877F809356
:1055F000E10082E08093630310925F038091E100F9
:105600008E7F8093E1008091E2008E7F8093E200A4
:105610008091E20080618093E20042E060E080E0FF
:105620000E9456298091F00088608093F0000E94CB
:10563000BC26FF91EF91BF91AF919F918F917F9188
:105640006F915F914F913F912F910F900FBE0F90EF
:105650001F9018951F920F920FB60F9211242F933F
:105660003F934F935F936F937F938F939F93AF93EA
:10567000BF93CF93DF93EF93FF93C091E900CF7077
:105680008091EC00D82FD17080FDD0E81092E90015
:105690008091F000877F8093F00078940E946E2BB9
:1056A0001092E9008091F00088608093F000CD2B8B
:1056B000CF70C093E900FF91EF91DF91CF91BF913F
:1056C000AF919F918F917F916F915F914F913F919A
:1056D0002F910F900FBE0F901F9018951F93CF938F
:1056E000DF93CDB7DEB7AA970FB6F894DEBF0FBE33
:1056F000CDBFE4E6F3E08091F100819323E0EC3646
:10570000F207C9F70E94CA268091E80083FF2EC1E4
:105710008091640390916503492F50E04A30510510
:1057200008F024C1FA01E857FF4F0C94502D80383F
:1057300021F0823809F01AC108C08091600390916D
:105740006103992389F082600FC0809168038F7094
:10575000873008F00BC18093E9008091EB0085FB56
:10576000882780F91092E9009091E800977F909344
:10577000E8008093F1001092F100D1C0282F2D7F16
:1057800009F0F4C0882319F0823061F0EFC08091F5
:105790006603813009F0EAC0933009F080E080931D
:1057A00061032EC08091660381112AC08091680335
:1057B0008F702FEF280F263008F0D8C08093E900B3
:1057C0002091EB0020FF1CC0933021F48091EB006E
:1057D000806214C09091EB0090619093EB0021E007
:1057E00030E0A90102C0440F551F8A95E2F74093AB
:1057F000EA001092EA008091EB0088608093EB0051
:105800001092E9008091E800877F8093E8000E9471
:105810008B29ACC08111AAC0109166031F778091BB
:10582000E3008078812B8093E3008091E800877FFC
:105830008093E8000E948B298091E80080FFFCCFD4
:105840008091E30080688093E300111102C082E040
:1058500001C083E08093630389C08058823008F0E0
:1058600085C080916603909167038C3D53E0950756
:1058700079F583E08A838AE289834FB7F894DE0161
:10588000139620E03EE051E2E32FF0E05093570002
:10589000E49120FF03C0E295EF703F5FEF708E2F21
:1058A00090E0EA3010F0C79601C0C0968D939D93AA
:1058B0002F5F243149F74FBF8091E800877F8093A5
:1058C000E8006AE270E0CE0101960E94972816C0B7
:1058D0006091680370916903AE014F5F5F4F0E9452
:1058E000C627BC01892B09F441C09091E800977F3D
:1058F0009093E80089819A810E94F5288091E800C0
:105900008B778093E80032C0803881F58091E80081
:10591000877F8093E80080915F038093F1008091FE
:10592000E8008E7772CF811121C08091660390913B
:10593000670399270297D4F48091E800877F8093CA
:10594000E8008091660380935F030E948B29809119
:105950005F03811106C08091E30087FD02C081E0F2
:1059600001C084E0809363030E94C0268091E80018
:1059700083FF0AC08091E800877F8093E8008091D0
:10598000EB0080628093EB00AA960FB6F894DEBF1E
:105990000FBECDBFDF91CF911F9108950895CF9392
:1059A000809163038823A1F0C091E900CF709091AA
:1059B000EC00892F817090FD80E8C82B1092E900DF
:1059C0008091E80083FD0E946E2BCF70C093E900A8
:1059D000CF910895DB018F939F930E94652DBF9116
:1059E000AF91A29F800D911DA39F900DB29F900D2E
:1059F00011240895991B79E004C0991F961708F0A7
:105A0000961B881F7A95C9F780950895AA1BBB1B22
:105A100051E107C0AA1FBB1FA617B70710F0A61BAE
:105A2000B70B881F991F5A95A9F780959095BC01CF
:105A3000CD01089597FB072E16F4009407D077FD4B
:105A400009D00E94062D07FC05D03EF49095819563
:105A50009F4F0895709561957F4F0895A1E21A2E8A
:105A6000AA1BBB1BFD010DC0AA1FBB1FEE1FFF1F02
:105A7000A217B307E407F50720F0A21BB30BE40B52
:105A8000F50B661F771F881F991F1A9469F7609599
:105A90007095809590959B01AC01BD01CF01089553
:105AA000EE0FFF1F0590F491E02D0994A29FB00125
:105AB000B39FC001A39F700D811D1124911DB29F42
:105AC000700D811D1124911D08950E94562DA59FD2
:105AD000900DB49F900DA49F800D911D11240895E9
